:020000040800F2
:1000000048100020E1010008F73D0008E336000831
:10001000F53D0008DB080008BD51000800000000A5
:10002000000000000000000000000000293E000861
:100030006D0D000800000000F93D0008FD3E0008BD
:10004000FB010008FB010008FB010008FB010008A0
:10005000FB010008FB010008FB010008FB01000890
:10006000FB010008FB010008FB010008FB01000880
:10007000FB0100088D0C0008990C0008FB0100082A
:10008000A50C0008B10C0008FB010008FB010008EA
:10009000FB010008FB010008FB010008FB01000850
:1000A000FB010008FB010008FB010008FB01000840
:1000B000FB0100083D430008FB010008FB010008AC
:1000C000FB010008FB010008FB010008FB01000820
:1000D000FB010008FB010008B1510008FB0100080A
:1000E000FB010008FB010008FB010008FB01000800
:1000F000FB010008FB010008FB010008FB010008F0
:10010000FB010008FB010008E5460008FB010008B0
:10011000094C0008154C000825470008FB010008A1
:10012000FB010008FB010008BD0C0008FB010008F2
:10013000FB010008FB010008FB010008FB010008AF
:10014000FB010008FB010008FB010008FB0100089F
:10015000FB010008FB010008FB010008FB0100088F
:10016000FB010008FB010008FB010008FB0100087F
:10017000FB010008FB010008FB010008FB0100086F
:10018000FB010008FB010008214C00082D4C000871
:10019000FB010008FB010008FB010008FB0100084F
:1001A000FB010008FB010008FB010008FB0100083F
:1001B000FB010008FB010008FB010008FB0100082F
:1001C000FB010008FB010008DFF810D000F048FB3D
:1001D0000048004755670008AFF300804810002032
:1001E0000648804706480047FEE7FEE7FEE7FEE7D1
:1001F000FEE7FEE7FEE7FEE7FEE7FEE7C53F000895
:10020000C90100082DE9F05F0546002092469B4693
:1002100088460646814640241BE02846414647461C
:10022000224600F066FA53465A46C01A914110D34E
:1002300011461846224600F04DFA2D1A67EB0108C8
:100240004F4622460120002100F044FA17EB000936
:100250004E41201EA4F10104DFDC484631462A4607
:100260004346BDE8F09FD2B201E000F8012B491EE1
:10027000FBD270470022F6E710B513460A46044643
:100280001946FFF7F0FF204610BD2DE9FE4F8046CE
:1002900081EA0300C00F0C46009021F0004123F0DA
:1002A0000045B8EB0200A94105D2404621469046E0
:1002B0001C460B46024623F00040104347D0270D52
:1002C000C7F30A00C3F30A510290401A0190402874
:1002D0006BDAC3F3130040F4801B0098924620B100
:1002E0000023D2EB030A63EB0B0B01985946C0F1D4
:1002F0004002504600F0EEF906460D46504659467B
:10030000019A00F006FA10EB08006141002487EA28
:10031000115284EAE7731A4340D0009A62B3019AFB
:10032000012A4FEA075215DC001B61EB02014FF076
:10033000004202EA0752CDE90042001C41F580115B
:1003400032462B4600F03DFA03B0BDE8F08F404640
:100350002146F9E7001B61EB0201001C41F5801307
:1003600000185B412018A2F5001747EB030140EA93
:10037000D570B6196D4111E06D084FEA360645EAB1
:10038000C0754FEA0752001B61EB0201001C41F5EA
:10039000801149084FEA30000019514132462B467E
:1003A00003B0BDE8F04F00F0FDB900980122400015
:1003B0000023D0EB020263EBE073009821464FEA82
:1003C000E074B8EB000061EB0401E9E783F000435F
:1003D0005BE781F0004158E72DE9FE4F81EA030415
:1003E00004F0004421F0004100944FF0000B23F092
:1003F000004350EA01045ED052EA03045BD0C3F329
:100400000A54C1F30A552C44A4F2F3340194A0FB1E
:100410000254C1F3130141F48011C3F3130343F4F5
:10042000801301FB024400FB034E840A970A44EA4E
:10043000815447EA8357A4FB076802958D0A05FBA0
:1004400007854FEA932C04FB0C542705029D4FEAC5
:10045000065847EA1637B5EB08056EEB070C870E12
:10046000920E47EA811742EA8312A7FB0201B6EB1C
:100470000B0164EB00042B0D43EA0C335E1844EBD4
:100480001C50DA465146E7FB0201C5F313044FEA5C
:100490000B3343EA14534FEA0432019C43EA060348
:1004A000A4F10C040294009CCDE900B400F089F999
:1004B00003B0BDE8F08F00200146F9E72DE9F04DCB
:1004C00081EA030404F0004B21F0004514464FF08C
:1004D000000A23F0004150EA050220D054EA01024C
:1004E0001DD0C5F30A570246C5F31303C1F3130029
:1004F000C1F30A5640F4801543F48013A7EB0608B5
:10050000101BD64608F2FD3873EB050002D308F144
:10051000010801E092185B41B8F1000F03DA0020F6
:100520000146BDE8F08D00204FF480110646844658
:100530000EE0171B73EB050705D3121B63EB0503D6
:1005400006434CEA010C49084FEA300092185B411F
:1005500050EA0107EDD152EA030012D082EA04000A
:1005600083EA0501084305D0101BAB4106D20122E6
:10057000002306E000224FF0004302E06FF001028A
:1005800053101AEB06004CEB085110EB0A0041EB3C
:100590000B01BDE8F04D00F005B90EB5C10F80EAC2
:1005A000E0700844CA07002140F233438DE80E0092
:1005B0000A460B4600F005F903B000BD0EB540F247
:1005C000334102910021CDE900110A460B4600F0AB
:1005D000F8F803B000BD70B5C1F30A5201F0004550
:1005E0000024C1F3130140F2FF3341F480119A4219
:1005F00001DA002070BD40F233439A42A2F2334246
:1006000003DC524200F075F800E090402C43F1D03A
:10061000404270BD00F0004230F000400AD0C10DF1
:1006200001F56071C0F3160042EA0151C2084007AB
:1006300011437047002001467047000030B5041E8A
:1006400071F1000404DB4FF00044404264EB01010F
:10065000141E73F1000405DB1C464FF000435242A8
:1006600063EB04038B4208BF824230BD30B5041EE9
:1006700071F1000404DB4FF00044404264EB0101DF
:10068000141E73F1000405DB1C464FF00043524278
:1006900063EB0403994208BF904230BD01F0004370
:1006A00030B421F0004150EA010206D00A0DA2F553
:1006B0006072C1F31301002A02DC30BC00207047D5
:1006C000440F44EAC104C100E01830BC00EBC25042
:1006D00000F031B8202A04DB203A00FA02F10020B1
:1006E00070479140C2F1200320FA03F31943904070
:1006F0007047202A04DB203A21FA02F000217047DB
:1007000021FA02F3D040C2F1200291400843194679
:100710007047202A06DBCB17203A41FA02F043EA61
:10072000E07306E041FA02F3D040C2F120029140AA
:100730000843194670470029A8BF7047401C49006C
:1007400008BF20F00100704710B4B0FA80FC00FA36
:100750000CF050EA010404BF10BC704749B1CCF161
:10076000200421FA04F411FA0CF118BF01212143ED
:100770000843A3EB0C01CB1D4FEA00614FEA1020A8
:1007800042BF002010BC704700EBC350104400294A
:10079000A4BF10BC7047401C490008BF20F00100F6
:1007A00010BC704710B5141E73F1000408DA401C29
:1007B00041F1000192185B411A4301D120F0010080
:1007C00010BD2DE9F04D92469B4611B1B1FA81F270
:1007D00002E0B0FA80F220329046FFF77BFF044639
:1007E0000F4640EA0A0041EA0B0153465A460843C5
:1007F00013D0114653EA010019D0C8F14002504607
:10080000FFF777FF05460E46504659464246FFF72A
:1008100061FF084305D0012004E020463946BDE8C9
:10082000F08D0020054346EAE0762C4337430A98D2
:100830006305E40AA0EB08000022FD0A44EA4754DD
:100840000A3002D500200146E9E701051019694187
:10085000DDE9084500196941BDE8F04DA2E7000057
:10086000064C074D06E0E06840F0010394E80700FD
:1008700098471034AC42F6D3FFF7AAFC588600081C
:100880007886000870B58C1810F8015B15F0070326
:1008900001D110F8013B2A1106D110F8012B03E019
:1008A00010F8016B01F8016B5B1EF9D12B0705D421
:1008B0000023521E0DD401F8013BFAE710F8013B6A
:1008C000CB1A921C03E013F8015B01F8015B521E86
:1008D000F9D5A142D8D3002070BDFEE72DE9F05F25
:1008E000674F0020DFF89C914FF00108664C0546E9
:1008F0002DED028B38719FED658A654E4FF4805A5D
:100900004FF4804B06F0D0FF284607F0F1F807F0CF
:10091000B7FB07F0B5FB07F0B3FB07F0B1FB07F03F
:10092000AFFB40F6B83005F09FFB00BFB0EE481AB1
:10093000FAEE080AB0EE000A07F068F851463046B1
:1009400000F048FE28B95946304600F043FE012821
:1009500068D01021484600F03DFE08B984F80080B8
:1009600038790128E2D1B0EE480A00203871B0EEA3
:10097000401AF0EE400A07F049F81021484600F00E
:1009800029FE012801D1207858B11021484600F0F5
:1009900021FE40B11021484600F01CFE012805D080
:1009A00009E0032006E084F8018004E020780128B3
:1009B00001D1022060706078012804D0022805D09F
:1009C000032809D112E006F0A6FF01E006F0AEFF11
:1009D00040F6B83005F048FB07F01AFB60780128B4
:1009E00009D002280AD003280ED146E006F0A9FF5C
:1009F00040F6AC50EEE706F062FF01E006F06AFF59
:100A000040F6C41005F030FB07F06EFB4FF4FA70AF
:100A100005F02AFB05F004FC1E4948556D1C022D0B
:100A2000FFF670AF54465D46DFED1B8AB0EE481A04
:100A3000B0EE080AF0EE680A06F0E8FF21463046FC
:100A400000F0C8FD0028F1D12946304600F0C2FD73
:100A50000128EBD1B0EE480AB0EE401AF0EE400AA1
:100A600006F0D4FF01206FF0C70105F0A3FFBDEC35
:100A7000028BBDE8F05F06F02DBF06F036FFBFE742
:100A8000D4000020000C0240A00100200000000063
:100A900000040240380C0020000048C22DE9F05F3D
:100AA0006F4F0020DFF8BC914FF4805A4FF00108DF
:100AB00005462DED028B38719FED6B8A6B4E4FF41E
:100AC000804B00BF06F0F0FE284607F011F84FF407
:100AD0004874204605F0C8FA07F0D2FA07F0D0FAB9
:100AE00007F0CEFA07F0CCFA07F0CAFA204605F074
:100AF000BBFA5F4C5146304600F06CFD012805D131
:100B00005946304600F066FD002871D0B0EE481A14
:100B1000F2EE080AB0EE000A06F078FF102148460F
:100B200000F058FD08B984F8008038790128E1D137
:100B3000B0EE480A00203871B0EE401AF0EE400ADC
:100B400006F064FF1021484600F044FD012801D161
:100B5000207858B11021484600F03CFD40B11021EA
:100B6000484600F037FD012805D009E0022006E0E4
:100B700084F8018004E02078012801D1032060700E
:100B80006078012804D0022805D003280AD113E098
:100B900006F0C1FE01E006F0C9FE40F6B83000BF25
:100BA00005F062FA07F034FA6078012809D00228CB
:100BB0000AD003280ED150E006F0C3FE40F6AC5038
:100BC000EEE706F07CFE01E006F084FE40F6C4107D
:100BD00005F04AFA07F088FA4FF4FA7005F044FA83
:100BE00005F01EFB234948556D1C022DFFF66AAF28
:100BF00055465C46DFED208AB0EE481AB0EE080A92
:100C0000F0EE680A06F002FF2946304600F0E2FCEA
:100C10000128F1D12146304600F0DCFC0028EBD160
:100C2000B0EE481AF0EE480AB0EE480A06F0EEFEC2
:100C3000642005F019FAB0EE481AF0EE480ABBEE4F
:100C4000040A06F0E3FE4FF4FA6005F00DFABDEC7D
:100C5000028BBDE8F05F06F048BE06F046FEB5E741
:100C6000D4000020000C02400000000000040240FC
:100C7000A0010020380C002000004842002211464C
:100C80004254491C3629FBDB70470000014800F044
:100C900023BA000044070020014800F01DBA0000FC
:100CA000A4070020014800F017BA0000C408002083
:100CB000014800F011BA000004080020014800F0CB
:100CC0000BBA00006408002001681823CAB2103A69
:100CD000B2FBF3F2054B6FF30901032A9B5CC3657A
:100CE00000D9091D81650846704700001485000879
:100CF00010B583694FF0C074826A0146002053B179
:100D0000B3F5005F15D072B1012A0CD0022A0AD0C7
:100D1000032A09D104E01AB1012A06D0022A03D11C
:100D2000C96AC90100D5012010BDC96AA142FAD023
:100D300010BD002AF7D0012AF2D0022AF3D0032AEC
:100D4000F3D010BD30B50468256825F480252560F2
:100D5000046863608368402B036803D0996000686F
:100D6000C26030BD9A600068C16030BD704772B625
:100D7000FEE7000070B502780E490F4B62B9012200
:100D800002704D6A002440F271269A68724305EBA6
:100D900002128260C460426040F271248268426044
:100DA0004D6A9968614305EB01118A1AC0E9021284
:100DB00070BD00000010004084000020F0B52F4FEF
:100DC000012100257A783B789143012B54D101EB26
:100DD000C1022B4B691E02EB420401EB440113F8E4
:100DE000142002EB030C1CF80110032944D103EB7F
:100DF0004401CE78B61DB2423ED10026921E04E0D8
:100E000011F806E0761C8EEA0505B242F8DC6FF0B8
:100E1000010202EB4402ED43EDB21CF80220AA42AB
:100E20002AD14A78022A27D1154D8835AA78412A35
:100E300001D10A790275AA78422A0CD15FF000022A
:100E4000C2F10706C2F1030C84448E5D521C042AD1
:100E50008CF81560F4DBAA78472A0BD113F814201C
:100E6000162A07D100228C188318521C2479102AC4
:100E70001C71F8DB00203870F0BD0000D0000020AD
:100E80002C0A00200F4A012110B553781478994399
:100E9000012C15D10C4B01EB410113F811402C2C06
:100EA0000ED103EB41014B78122B09D18B78022B29
:100EB00006D10B795B2B03D1CB7800210371117024
:100EC00010BD0000D2000020EA0A0020144A0121CF
:100ED00010B5537814789943012C1FD1114B01EBB5
:100EE000C1015C5C482C19D119444B78452B15D1B4
:100EF0008B78412B12D1CB78442B0FD14B79542BCB
:100F00000CD18B79412B09D1CB79492B06D10B7AA6
:100F10004C2B03D10B7900210371117010BD00001F
:100F2000C60000201A0A00203B4B012110B55A7858
:100F30001C789143012C51D1384AC1EBC101545C5A
:100F4000552C4BD111444A78552A47D14A79882AE1
:100F500044D1827922B1022A1FD0012A3FD03BE03E
:100F60008A78D20902728A78C2F3801242728A7831
:100F7000C2F3401282728A78C2F30012C2728A7877
:100F8000C2F3C00202738A78C2F3800242738A7885
:100F9000C2F34002827389781BE0CA78D2090272D8
:100FA000CA78C2F380124272CA78C2F340128272C7
:100FB000CA78C2F30012C272CA78C2F3C0020273C6
:100FC000CA78C2F380024273CA78C2F340028273C5
:100FD000C97801F00101C1730020187010BD0A79B1
:100FE000D20902720A79C2F3801242720A79C2F3FC
:100FF000401282720A79C2F30012C2720A79C2F3F5
:10100000C00202730A79C2F3800242730A79C2F302
:10101000400282730979DCE7C40000200C0A00203A
:101020002DE9F041876D044600F0DAFA064694F89F
:1010300035000025022806D080206065012084F854
:101040003450BDE8F0812068016821F0160101608C
:101050002068416921F080014161206C08B9A06CD1
:1010600020B12068016821F0080101602068016852
:1010700021F0010101600CE000F0B2FA801B0528AC
:1010800007D920216165032084F8345084F83500A5
:10109000D7E720680068C007EED194F85C203F20B5
:1010A00001219040B86084F8345084F83510002055
:1010B000C7E790F83510022903D08021416501204F
:1010C0007047052180F835100068016821F00101A2
:1010D00001600020704700002DE9F84304464FF0FE
:1010E0000009644B0820CDF800904FF41652A56D0E
:1010F00094F85C101B682E68B3FBF2F700FA01F15C
:1011000031420FD021680A6852070BD50A6822F0D5
:1011100004020A6094F85C108840A860606D40F09A
:101120000100606594F85C104FF0010808FA01F0C6
:10113000304208D021684969090604D5A860606D6D
:1011400040F00200606594F85C1004208840304252
:1011500008D021680968890704D5A860606D40F04F
:101160000400606594F85C1010208840304218D06C
:1011700021680968090714D5A86020680168490337
:1011800004D50068000308D5A16C07E00168C90513
:1011900003D4016821F008010160216C09B12046E7
:1011A000884794F85C1020208840304231D0216874
:1011B0000968C9062DD5A86094F83500052820686F
:1011C000016806D0490347D5006800031DD4616C4F
:1011D0001CE021F0160101602068416921F08001C6
:1011E0004161206C08B9A06C20B12068016821F031
:1011F0000801016094F85C303F229A40AA6084F8AC
:10120000349084F83580216D1FE0E16B09B12046F0
:101210008847606D00282BD0606DC00714D0052072
:1012200084F835002068016821F001010160009810
:10123000401C0090B84203D820680068C007F6D16F
:1012400084F8349084F83580E16C002910D001B026
:101250002046BDE8F04308470168C905D5D40368B6
:1012600023F01003036084F8349084F83580CCE7D1
:10127000BDE8F883D80100202DE9F047044600F0CE
:10128000AFF9054664B14FF0000984F834900221AB
:1012900084F835102068016821F0010101600EE03A
:1012A0000120BDE8F08700BF00F09AF9401B052837
:1012B00005D920216165032084F83500F1E7206815
:1012C0000068C007F0D1D4E90020D4E90251D4E984
:1012D000043C284304F1180519430843116895E8B4
:1012E000E00140EA0C001C4B2843194040EA06008C
:1012F00040EA0700B8F1040F40EA010003D1D4E945
:101300000B1319430843106020680126656A406981
:10131000042D20F0070045EA00050CD1D4E90A01AC
:10132000054341B12046FFF7E3FC20B14020606552
:1013300084F83560B4E7206845612046FFF7C4FCB7
:1013400094F85C303F229A408260C4F8549084F84C
:1013500035600020A5E700003F8010F02DE9F04146
:10136000044690F8340000250128A66D0ED094F8AC
:1013700035C00127002084F83470BCF1010F07D07C
:10138000022584F834002846BDE8F0810220FBE7FE
:10139000022784F8357060652046FFF7D3FC94F887
:1013A0005C103F208840B0602068016841F0160161
:1013B00001602068416941F080014161206C20B1E9
:1013C0002068016841F0080101602068016841F06F
:1013D00001010160D7E7000070B5044600F000F994
:1013E0000546601C02D004480078044400F0F8F878
:1013F000401BA042FAD370BDCC0100202DE9F84F6C
:1014000000224FF001094FF0030A4FF00F0E00BF0A
:101410000B6809FA02F42340A34270D14D68012DF4
:1014200005D0022D03D0112D01D0122D11D18568C8
:101430005700CE680AFA07FC25EA0C05BE402E4389
:10144000866045680E79A543C6F3001696402E4384
:101450004660C56856008F680AFA06F4A543B7408F
:101460002F43C7604D68022D01D0122D12D1D5082F
:101470000F694FEA427C00EB8505AB462D6A4FEAC7
:10148000DC6C0EFA0CF807FA0CF725EA08052F4376
:10149000CBF820700D79076805F00305A743B54028
:1014A0003D4305604C68E40074D53D4C256845F427
:1014B00080452560246822F00307960704F48044E1
:1014C0000094384C360F2744D7F80848DFF8D8C0C6
:1014D0000EFA06F5604524EA050401D100252EE048
:1014E000324DA84201D1012529E0314DA84201D158
:1014F000022524E02F4DA84202D103251FE049E038
:101500002D4DA84201D1042519E02C4DA84201D14E
:10151000052514E02A4DA84201D106250FE0294DEA
:10152000A84201D107250AE0274DA84201D108258C
:1015300005E0264DA84201D1092500E00A25B54065
:10154000234E2543C7F808584D683468ED0324EA54
:10155000030400D51C431E4D34602D1D4E682C68BD
:10156000B60324EA030400D51C43194E2C60083648
:101570004D683468ED0224EA030400D51C43144D81
:1015800034600C354E682C68B60224EA030400D59A
:101590001C432C60521C102AFFF43AAFBDE8F88FB0
:1015A0004438024000300140000002400004024084
:1015B00000080240000C02400010024000140240EB
:1015C00000180240001C024000200240002402409B
:1015D000003C01400069084000D001207047000035
:1015E0000148806870470000CC01002002488168F3
:1015F0000278114481607047CC010020074810B583
:10160000016841F400710160032000F06FF80F20C1
:1016100000F006F800F024F8002010BD003C024065
:1016200070B50D4D04464FF47A700C4A2978126853
:10163000B0FBF1F0B2FBF0F000F0C8FD48B9102C9F
:1016400007D200222146501E00F030F800206C60C6
:1016500070BD012070BD0000CC010020D801002029
:101660000A4808B5016841F080510160006800F047
:10167000805000900548001D016841F480410160E0
:10168000006800F48040009008BD0000403802402F
:10169000002809DB410900F01F028900012001F147
:1016A000E0219040C1F80001704700000E4BF0B4FB
:1016B0001B680D46C3F30223C3F10706042E00D9AD
:1016C0000426191D072901D2002300E0DB1E012496
:1016D00004FA06F19C40491E2940641E99401440BA
:1016E0002143F0BC03F083BD0CED00E0064900F09F
:1016F000070210B54FF6FF040868044B204040EA8B
:1017000002201843086010BD0CED00E00000FA054F
:101710001848F8B5016841F0805101600068164C26
:1017200000F080500090206840F480302060FFF787
:1017300057FF4FF47A76054605E000BFFFF750FFEC
:10174000401BB0420FD86068C003F7D5206840F452
:1017500000302060FFF744FF054606E0FFF740FF3A
:10176000401BB04201D90320F8BD60688003F5D565
:101770000020F8BD40380240007000402DE9F84FCD
:1017800004460078DFF824944FF000063746C0077F
:101790000ED0D9F8001021F40001C9F80010D9F8D2
:1017A0000010626B1143C9F80010606B00B901268C
:1017B000FE4D2068843500030ED5E16B286820F4C7
:1017C000401008432860E06BB0F5801F01D010B1D5
:1017D00002E0012600E0012720684FF4800BC002E0
:1017E0000CD5216C286820F4400008432860206C48
:1017F000584501D1012601E000B901272068C10147
:1018000000D50126800666D5E8483830016841F0E9
:10181000805101600068DFF898A300F080500090CC
:10182000DAF8001041F48071CAF80010FFF7D8FE12
:10183000804605E0FFF7D4FEA0EB080064287DD8C1
:10184000DAF80000C005F5D5DFF8608308F1680814
:10185000D8F8000010F440702AD0218E01F44071B5
:10186000814225D0D8F80010D8F8002021F440712A
:1018700042F48032C8F80020D8F8002022F48032E8
:10188000C8F80020C8F80010D8F80000C0070FD032
:10189000FFF7A6FE824607E0FFF7A2FEA0EB0A01D3
:1018A00041F288308142CAD8D8F800008007F3D5C9
:1018B000206BC0F3012103297ED0D9F8001021F458
:1018C000F811C9F80010228ED8F80010C2F30B02EC
:1018D0001143C8F800102078C00607D5286820F00A
:1018E000807028602868A16B084328602188AF4871
:1018F0008830490405D5626E016821F440311143F6
:1019000001602188090405D5A26E016821F44021F7
:10191000114301602168C90305D5E26E016821F415
:101920004011114301602168890305D5226F0168C8
:1019300021F4400111430160217800E016E14906DD
:1019400005D5626C016821F0030111430160217823
:10195000090605D5A26C016821F00C011143016054
:101960002188C90505D5E26C016821F030011143D9
:1019700001602188890505D5226D016821F0C0012B
:10198000114301602188490505D5626D016821F484
:101990004071114301602188090505D5A26D0168D8
:1019A00021F44061114301602188C90407D5E26D2B
:1019B000016821F4405100E04AE0114301602188B0
:1019C000890405D5226E016821F44041114301606C
:1019D0002168490205D5A26F016821F08061114399
:1019E000016021684FF0006A890209D5E26F016841
:1019F00021F0006111430160E16F514500D10127E1
:101A000021680A0700D50127490305D5626F0168DF
:101A100021F04071114301602168090206D5D4F814
:101A20008020016821F0805111430160DFF884912A
:101A3000012E02D0206880017ED5D9F800004E46E4
:101A400020F08060C9F80000FFF7CAFD80460FE073
:101A5000594AD9F80030104023F4F8120243C9F86B
:101A6000002030E7FFF7BCFDA0EB080064287DD81C
:101A700030680001F6D421784C487C30C90712D078
:101A8000616B81B9237A62680168D0F800C0920165
:101A9000C1F3014142EA0142CCF3036142EA016130
:101AA00041EA0371016021680A0303D5E26BB2F5D4
:101AB000801F04D0C9021AD5216C594517D163681B
:101AC000016894F80CC002689B01C1F3014143EA2C
:101AD0000141C2F3027241EA0C6141EA0271016004
:101AE0002968626A21F01F01521E11432960216892
:101AF000C90110D5238A62680168D0F800C092013C
:101B0000C1F3036142EA034242EA0162CCF302718B
:101B100042EA01710160216889010CD56168228A5D
:101B2000237B94F808C0890141EA024141EA03613C
:101B300041EA0C71016000E011E03168B04641F00B
:101B400080613160FFF74CFD064604E0FFF748FD79
:101B5000801B64280AD8D8F800000001F6D56FB3BE
:101B6000D9F800004E4620F0805000E07BE0C9F834
:101B70000000FFF735FD074605E000BFFFF730FD29
:101B8000C01B64286FD83068C0438000F6D5074872
:101B9000216880300A0301D5E26B1AB1C90225D54C
:101BA000216C19BB63690168277E08E00838024090
:101BB0000070004000380240FFFCFF0F5AE002684E
:101BC000C1F301419B0143EA0143C2F3027143EABD
:101BD000076242EA0171016029686FF0FF03A26A9F
:101BE00021F4F85103EB0222114329602168890294
:101BF00012D5E16F51450FD1238C626901680768E6
:101C00009201C1F3036142EA034242EA0162C7F36F
:101C1000027142EA017101602178090716D56169F4
:101C20000268D0F800C08B01277FC2F30362CCF3B7
:101C3000014143EA014141EA026141EA0771016061
:101C40002868E16A20F4403008432860306840F09A
:101C500080503060FFF7C4FC044607E0FFF7C0FC8B
:101C6000001B642802D90320BDE8F88F3068C04308
:101C70008000F3D40020F7E72DE9F04705000F4678
:101C800063D0444E306800F00F00B84209D230688B
:101C900020F00F0038433060306800F00F00B84289
:101CA00053D128683C4C810712D5400703D52068E2
:101CB00040F4E05020602878000703D5206840F405
:101CC00060402060A968206820F0F0000843206090
:101CD0002878C0072AD0304968680839012810D010
:101CE0000968022810D0890700292EDA216821F01E
:101CF000030101432160FFF773FC804641F28839FC
:101D00000DE009688903EFE78901EDE7FFF768FC5B
:101D1000A0EB0801494502D90320BDE8F0876868B7
:101D2000216801F00C01B1EB800FEFD1306800F0B9
:101D30000F00B8420BD9306820F00F0038433060F4
:101D4000306800F00F00B84201D00120E5E72878A4
:101D5000400705D5E968206820F4E050084320607A
:101D60002878000706D52869216821F4604141EAF6
:101D7000C000206000F038F82168084AC1F3031160
:101D8000515CC8400649086006480068FFF748FCF7
:101D90000020C2E7003C0240083802401C850008D1
:101DA000D8010020D00100200449054809680068D6
:101DB000044AC1F38221515CC84070470838024090
:101DC000D80100202C8500080449054809680068EE
:101DD000044AC1F34231515CC840704708380240A0
:101DE000D80100202C850008154910B51548096850
:101DF00011F00C0213D04110042A0FD0082A0ED182
:101E00000F4C241F2268236802F03F025B0207D5B3
:101E10002068C0F38810A0FB010106E0084610BD51
:101E20002168C1F38811A1FB00010023FEF7EAF944
:101E30002168C1F30141491C4900B0FBF1F010BD1C
:101E4000083802400024F4002DE9F84F04004FF058
:101E500000076ED02078DFF868A3AAF10408C00755
:101E6000A8F104054CD0DAF800105046C1F3810106
:101E7000012908D00068C0F3810002280AD1D8F8EF
:101E80000000400206D52868800339D56068002824
:101E9000DFD035E06068B0F5803F0BD010B1B0F511
:101EA000A02F11D0286820F480302860286820F402
:101EB000802002E0286840F480302860606890B19B
:101EC000FFF78EFB06460AE0286840F48020286071
:101ED000F0E700BFFFF784FB801B642872D82868F6
:101EE0008003F7D50CE0FFF77BFB064605E000BF5B
:101EF000FFF776FB801B6428F0D828688003F7D4AE
:101F00002078800742D5DAF80010504611F00C0F07
:101F100008D00068C0F3810002280BD1D8F8000077
:101F2000400207D42868800718D5E068012800D14E
:101F300014E041E1E0680028286817D040F0010073
:101F40002860FFF74DFB064605E000BFFFF748FBA2
:101F5000801B0228C2D828688007F7D52069296825
:101F600021F0F80141EAC00028600FE020F00100F4
:101F70002860FFF735FB064605E000BFFFF730FBA2
:101F8000801B02281ED828688007F7D42078000715
:101F900029D58B4861696C3000298146016812D0CF
:101FA00041F001010160FFF71BFB064605E000BFA1
:101FB000FFF716FB801B022804D8D9F80000800721
:101FC000F6D510E089E021F001010160FFF708FB80
:101FD000064604E0FFF704FB801B02287DD8D9F8F1
:101FE00000008007F6D4207840076BD5DFF8D09149
:101FF00009F13809D9F80000C0000BD4D9F8001055
:1020000041F08051C9F80010D9F80000012700F014
:10201000805000906B480168C90512D4016883465E
:1020200041F480710160FFF7DBFA064605E000BF6E
:10203000FFF7D6FA801B64284FD8DBF80000C005F4
:10204000F6D55F4EA068683601280AD008B1052889
:1020500011D0306820F001003060306820F00400BA
:1020600002E0306840F001003060A068A0B1FFF7E6
:10207000B7FA83460CE0306840F004003060F0E7C7
:10208000FFF7AEFAA0EB0B0141F28830814266D82F
:1020900030688007F4D50EE0FFF7A2FA834607E028
:1020A000FFF79EFAA0EB0B0141F28830814256D82F
:1020B00030688007F4D42FB1D9F8001021F0805196
:1020C000C9F80010A069C8B3DAF80010C1F38101A3
:1020D00002294BD00228286800E040E020F0807000
:1020E000286003D0FFF77CFA04463BE0FFF778FA5C
:1020F000064604E0FFF774FA801B02282FD82868F0
:102100008001F7D4D4E90962D4E907012E4B5708BE
:1021100094F82C20084303EB074343EA8611084355
:1021200040EA026040F00050C8F80000286840F023
:1021300080702860FFF754FA044606E03EE000BFD6
:10214000FFF74EFA001B022809D828688001F7D54E
:1021500034E000BFFFF744FA001B022802D9032035
:10216000BDE8F88F28688001F4D427E00128D8F86A
:10217000000021D0E16900F480028A421CD1216A6A
:1021800000F03F028A4217D1626A47F6C0710140EF
:10219000B1EB821F10D1A16A4FF0FF3200F440333F
:1021A00002EB5101B3EB014F06D194F82C1000F073
:1021B0007060B0EB016F01D00120D1E70020CFE7C4
:1021C00008380240007000400000FFFF401EB0F1E0
:1021D000807F10B501D3012010BD4FF0E024606175
:1021E0000F21601703F003F80020A061072121618F
:1021F00010BD7047704770472DE9F04390F83C20C0
:10220000012A42D0012280F83C2051F80C4BDFF823
:1022100080804FF0000991E8680051E9022723F41B
:102220004073B1F80CC03B43CF6923F48063134380
:10223000026823F40063234323F4805343EA050335
:1022400023F4005343EA060323F4804343EA0703DD
:102250000C3923F47023424543EA0C4302D00D4C61
:10226000A2420CD18D8C23F47006D1E9073446EAE2
:10227000055121F08071194321F000732343536409
:1022800080F83C900020BDE8F0830220FBE70000CE
:102290000000014000040140F0B590F83C20012A04
:1022A0003BD01F4E012480F83C40022280F83D20A4
:1022B00002681C4D5368B242D2F808C001D0AA424D
:1022C00003D14F6823F470033B430F6823F070037E
:1022D0001F4357600268B24213D0B2F1804F10D052
:1022E000114B9A420DD0114B9A420AD0104B9A4290
:1022F00007D0AA4205D00F4B9A4202D00E4B9A4209
:1023000004D189682CF0800319439160002180F882
:102310003D4080F83C100846F0BD0220F0BD0000B2
:10232000000001400004014000040040000800409B
:10233000000C0040004001400018004010B50400AF
:1023400003D094F83D0010B107E0012010BD00203B
:1023500084F83C00204600F023F8022084F83D0079
:102360002068211D02F016FA012084F8480084F844
:102370003E0084F83F0084F8400084F8410084F86F
:10238000420084F8430084F8440084F8450084F84F
:10239000460084F8470084F83D00002010BD00008E
:1023A00008B501681848814201D118480FE0184863
:1023B000B1F1804F0BD0174A914210D1016841F022
:1023C00004010160006800F00400009008BD01688D
:1023D00041F001010160006800F00100F5E70E4ADC
:1023E0009142F3D1016841F01001016000680022C0
:1023F000052100F0100000903620FFF757F9BDE8E6
:1024000008403620FFF744B900000140443802403C
:1024100040380240000800400010004090F83D1095
:10242000012901D001207047174A022180F83D1090
:102430000168CB6843F00103CB600068904214D080
:10244000B0F1804F11D0114988420ED01049884216
:102450000BD01049884208D00F49884205D00F4957
:10246000884202D00E49884207D181680D4A114046
:10247000062906D0B1F5803F03D0016841F0010183
:10248000016000207047000000000140000400408F
:1024900000080040000C00400004014000400140E2
:1024A000001800400700010070B5044690F83C0099
:1024B000012817D0324B012584F83C50022084F8C3
:1024C0003D0022689068184020F47F4090600868C2
:1024D000502830D00DDC20284DD005DC98B31028D2
:1024E0003BD148E0022070BD302844D0402834D190
:1024F00039E0602828D0702806D0B0F5805F2CD055
:10250000B0F5005F29D10AE04A682068D1E90213DA
:1025100002F0B3F92068816841F0770109E04A6868
:102520002068D1E9021302F0A8F92068816841F41B
:102530008041816011E0CA684968206802F0E4FACD
:102540002068502107E016E0CA684968206802F058
:102550002DFB2068602102F099F9002084F83D509D
:1025600084F83C0070BDCA684968206802F0CCFA63
:1025700020684021EFE7226801461046EBE70000A3
:1025800088FFFEFF10B53D4A2DED068B0168914294
:102590000BD1007F012802D0042803D013E001F002
:1025A000EDFE10E001F0C4FF0DE0354A91420AD182
:1025B000007F012802D0042803D004E001F00AFDC6
:1025C00001E001F0E1FD2F480168491C0160B1F50F
:1025D000C87F4FD1002101602B48006AFDF7DDFF65
:1025E0000AEE100A21F000411AEE100A41EC1A0B13
:1025F0002648006AFDF7D1FF09EE100A21F00041DC
:1026000019EE100A41EC190B2148006AFDF7C5FFCD
:1026100008EE100A21F0004118EE100A41EC180BE8
:102620001C48006AFDF7B9FF00EE100A53EC182BA6
:1026300010EE100A21F00041FDF727FE53EC192B94
:10264000FDF723FE53EC1A2BFDF71FFE9FED121B27
:1026500053EC112BFDF7C0FE0A4C41EC180B803CEB
:10266000E068FDF79AFF53EC182BFDF70EFEFDF71F
:10267000B2FFE060BDEC068B10BD0000000C004016
:102680000004004080000020900900206C09002018
:102690004809002024090020000000000000D03F6D
:1026A0002DE9F041054690F83C000C46012836D053
:1026B000012085F83C008AB3042A42D02868082A01
:1026C00051D0D4E90023E168066A4FF6FF774FF452
:1026D000204C26F48056066207EA0131C669076A73
:1026E0000CEA023226F4407C27F420464CEA03230D
:1026F000324323F470431943C16102622868C169FF
:1027000021F44061C1612868A168C26942EA0121DF
:10271000C161002085F83C00BDE8F08101E00220A5
:10272000FAE7E3682868D4E9001202F0FFF92868A4
:10273000816921F00C01816128688169A2681143D7
:102740000FE0E3682868D4E9001202F041FA286833
:10275000816921F44061816128688169A26841EA48
:1027600002218161D5E7D4E90027217B036A4FF478
:10277000206606EA0222090723F480730362C36914
:10278000066A23F003033B4326F4206623F0F0039C
:10279000324343EA1161C16102622868C16921F0D4
:1027A0000C01C1612868A268C1691143B0E710B586
:1027B000040003D094F83D0010B107E0012010BDE3
:1027C000002084F83C00204600F022F8022084F823
:1027D0003D002068211D01F0DDFF012084F8480044
:1027E00084F83E0084F83F0084F8400084F84100FB
:1027F00084F8420084F8430084F8440084F84500DB
:1028000084F8460084F8470084F83D00002010BD9D
:1028100070B586B0044614216846FDF72BFD31499A
:10282000002523680224304E10392E4A2F48B34227
:1028300031D1136843F002031360126802F0020200
:1028400005920A6842F001020A600A6802F0010279
:1028500005920A6842F002020A600968CDE9024561
:1028600001F00201059140210494CDE9001469466C
:10287000FEF7C4FD01206946CDE900041C48CDE9FE
:1028800002450494FEF7BAFD00221D201146FEF712
:102890000DFF1D2021E0174EB34220D1136843F0F5
:1028A00008031360126802F0080205920A6842F0F9
:1028B00001020A600968CDE9024501F001010591B4
:1028C00005210494CDE900146946FEF797FD002226
:1028D00032201146FEF7EAFE3220FEF7D9FE06B09E
:1028E00070BD00004038024000040040000002407B
:1028F00000040240000C004010B5044679B10429E0
:1029000012D0082915D00C2918D0102919D094F804
:10291000430000BF94F84720012817D114E094F831
:102920003E0094F84420F7E794F83F0094F84520DF
:10293000F2E794F8400094F84620EDE794F841005F
:10294000E8E794F84200E5E7012A01D0012010BD34
:102950004FF0020071B1042915D008291CD00C29B0
:102960004ED010294FD084F843000C2984F847003A
:102970001BD14BE084F83E0084F844002068C26814
:1029800042F0020210E084F83F0084F8450020681D
:10299000C26842F0040207E084F8400084F8460070
:1029A0002068C26842F00802C2602068012201F07B
:1029B00057FF19492068884214D0B0F1804F11D0D8
:1029C000164988420ED0164988420BD015498842D4
:1029D00008D01549884205D01449884202D01449CC
:1029E000884207D18168134A1140062906D0B1F503
:1029F000803F03D0016841F001010160002010BD5B
:102A000084F84100B1E784F84200AEE72068C2686C
:102A100042F01002C8E7000000000140000400403E
:102A200000080040000C004000040140004001404C
:102A3000001800400700010070B50446006800253A
:102A40000169C943890715D4C168C943890711D4ED
:102A5000EA1E0261012121772068806980072046F3
:102A600002D0FFF78FFD04E000F012F9204600F0DD
:102A7000D1F9257720680169C943490717D4C1688E
:102A8000C943490713D402216FF004020261217780
:102A90002068806910F4407F204602D0FFF772FD65
:102AA00004E000F0F5F8204600F0B4F9257720683E
:102AB0000169C943090716D4C168C943090712D47B
:102AC00004216FF00802026121772068C069800745
:102AD000204602D0FFF756FD04E000F0D9F820466A
:102AE00000F098F9257720680169C943C90617D411
:102AF000C168C943C90613D408216FF010020261EE
:102B000021772068C06910F4407F204602D0FFF78B
:102B100039FD04E000F0BCF8204600F07BF9257791
:102B200020680169C943C90708D1C168C943C907F9
:102B300004D1891E0161204600F0EAF9206801698C
:102B4000C943090609D4C168C943090605D46FF011
:102B5000800101612046FFF74DFB20680169C943F0
:102B6000C90509D4C168C943090605D46FF4807149
:102B700001612046FFF73DFB20680169C943490612
:102B800009D4C168C943490605D46FF04001016109
:102B9000204600F0E9F920680169C94389060BD491
:102BA000C168C943890607D46FF02001016120463E
:102BB000BDE87040FFF71FBB70BD0000F0B587B0E7
:102BC000054614216846FDF755FB286800242B4A6A
:102BD00002252949012690420FD1086840F01000D3
:102BE00008600868694600F0100005904FF4D44072
:102BF00000902348CDE9015438E0224FB0F1804FD6
:102C000013D0214A904235D1086840F00200086094
:102C10000868694600F00200059050150090CDE963
:102C20000154CDE90345384622E0086840F0010030
:102C30000860086800F001000590086840F0020094
:102C400008600868694600F00200059020200090A6
:102C5000CDE901540D48CDE90346FEF7CFFB40F620
:102C600008400090CDE9015469463846CDE9034655
:102C7000FEF7C4FB07B0F0BD303802400000014051
:102C80000010024000040240000800400000024022
:102C9000704770B5044690F83C000D4601280BD0F3
:102CA000012084F83C000C2A45D007DC5AB1042AE4
:102CB0001BD0082A78D12CE0022070BD102A4ED0FB
:102CC000142A71D15DE0206801F0E8FD2068816977
:102CD00041F0080181612068816921F0040181616E
:102CE00020682A698169114311E0206801F010FE13
:102CF0002068816941F4006181612068816921F463
:102D00008061816120682969826942EA01218161CB
:102D10004AE0206801F038FE2068C16941F00801EE
:102D2000C1612068C16921F00401C16120682A697C
:102D3000C169114311E0206801F062FE2068C16999
:102D400041F40061C1612068C16921F48061C16101
:102D500020682969C26942EA0121C16124E0206832
:102D600001F07AFE2068416D41F00801416520685C
:102D7000416D21F00401416520682A69416D1143CC
:102D800011E0206801F094FE2068416D41F400617B
:102D900041652068416D21F48061416520682969A1
:102DA000426D42EA01214165002084F83C0070BD7B
:102DB00010B5040003D094F83D0010B107E00120E5
:102DC00010BD002084F83C00204600F022F80220CC
:102DD00084F83D002068211D01F0DCFC012084F80E
:102DE000480084F83E0084F83F0084F8400084F8EE
:102DF000410084F8420084F8430084F8440084F8D9
:102E0000450084F8460084F8470084F83D0000201F
:102E100010BD70477047000010B504464FF0020225
:102E200069B1042912D0082917D00C291CD0102907
:102E300021D094F84300012824D0012010BD94F83B
:102E40003E000128F9D184F83E201DE094F83F00AF
:102E50000128F2D184F83F2016E094F840000128C0
:102E6000EBD184F840200FE094F841000128E4D130
:102E700084F8412008E094F842000128DDD184F86C
:102E8000422001E084F843200122206801F0E8FCA0
:102E900017492068174A884201D0904203D1436CF9
:102EA00043F4004343642068884213D0B0F1804F5C
:102EB00010D0114988420DD0104988420AD01049DB
:102EC000884207D0904205D00E49884202D00E4970
:102ED000884207D181680D4A1140062906D0B1F514
:102EE000803F03D0016841F001010160002010BD66
:102EF00000000140000401400004004000080040C0
:102F0000000C004000400140001800400700010094
:102F100010B5084904460068884201D101F014FA4E
:102F200005492068884203D1BDE8104001F0E0BBAC
:102F300010BD000000040040000C004002464FF0AD
:102F4000000041B1042909D008290AD00C2901D177
:102F50001068006C70471068406B70471068806B99
:102F600070471068C06B7047704710B50446C06F5B
:102F700020281CD181B17AB194F87400012816D0B0
:102F8000012084F874002066204602F07DF80028B5
:102F900003D1216E012901D0012010BD226810212A
:102FA000116221680A6842F010020A6010BD022016
:102FB00010BD000010B5194904460068884208D1C8
:102FC000174804F061FB1648FDF7AEFF1548FDF702
:102FD000ABFF1548216800680068814205D112489E
:102FE00004F032FB1048FDF771FF104801682068BB
:102FF0000968884205D10D4804F004FB0B48FDF731
:1030000041FF0B48216800680068814204D1BDE897
:103010001040074804F0D2BA10BD00000044004040
:10302000F8090020B0000020C8000020D4000020D3
:10303000980A0020704700002DE9F041026804461C
:10304000002540F60F06D06911689368304205D11B
:10305000830678D58B0676D5616EE7E07C4F03F06A
:1030600001060F4037437ED0C70709D0CF0507D5EB
:1030700001271762D4F8802042F00102C4F88020B2
:1030800082070AD5DA0708D0276802223A62D4F804
:10309000802042F00402C4F8802042070AD5DA07F3
:1030A00008D0236804221A62D4F8802042F0020279
:1030B000C4F8802002070CD501F02002324308D06A
:1030C000236808221A62D4F8802042F00802C4F86B
:1030D000802002050BD54A0109D523684FF4006210
:1030E0001A62D4F8802042F02002C4F88020D4F87C
:1030F0008020002A2FD0800605D5880603D5616E72
:1031000009B1204688472168D4F8800089684906BB
:1031100002D410F0280F20D0204601F07BFE20685A
:103120008168490614D5816821F040018160206FD3
:1031300070B148490165206FFDF7BBFF00280AD038
:10314000206F016D01E00EE02046BDE8F041084728
:103150002046FFF76FFFBDE8F0812046FFF76AFFCA
:10316000C4F88050F7E7266E2023012E59D1C606F9
:1031700057D5CE0655D510201062206881684906C3
:103180002ED5226F116849680904090CE3D0B4F800
:1031900058608E42DFD9A4F85A10D169B1F5807F0A
:1031A00017D0016821F4807101602068816821F0E6
:1031B000010181602068816821F040018160E3673E
:1031C00025662068016821F010010160206FFDF77D
:1031D00027FFB4F85800B4F85A10401A81B21CE026
:1031E000B4F85810B4F85A20B4F85A60891A89B261
:1031F000002EB0D00029AED0026822F49072026096
:103200002068826822F001028260E36725666566B5
:103210002068026822F0100202602046FFF7CAFE12
:1032200099E7060605D50E0603D5A16E00298BD1B8
:1032300091E740068FD548068DD51168204621F0CC
:1032400040011160A367A56600F04AFA83E7000019
:1032500020010004414D000810B5040002D0A06F09
:1032600010B107E0012010BD002084F87400204652
:1032700000F026F82420A0672068016821F00101F1
:103280000160204601F0E6FD0128ECD0606A10B133
:10329000204601F0D1FC2068416821F49041416052
:1032A0002068816821F02A0181602068016841F06E
:1032B000010101602046BDE8104001F021BD000081
:1032C0002DE9F04F87B0054614216846FCF7D2FF80
:1032D000C4480024C54A032610382B68C1494FF062
:1032E000006ADFF804C3071593424FF002084FF05D
:1032F000080934D10A6842F400220A60096801F41E
:1033000000210591016841F004010160006802AAF2
:10331000694600F004000590B002CDE9000882E89B
:1033200050026046FEF76AF8B14EB249304631604D
:10333000C6E901A4C6E903477461B461F46134626B
:103340007462FDF799FF08B1FDF711FD2E670022A9
:103350000321B5633420FEF7A9F9342034E0A64AEE
:10336000934236D10A6842F480120A60096801F477
:1033700080110591016841F004010160016801F0CC
:1033800004010591016841F008010160006802AA8A
:10339000694600F0080005909814CDE9000882E81D
:1033A00050026046FEF72AF80420694602AACDE9D9
:1033B0000008924882E85002FEF720F8002204211B
:1033C0003520FEF773F93520FEF762F907B0BDE846
:1033D000F08F8B4A4FF0206BDFF828C2934237D131
:1033E0000A6842F080420A60096801F08041059154
:1033F000016841F010010160006802AA694600F00E
:10340000100005904FF4C070CDE9000882E850022A
:103410006046FDF7F3FF764E764960361831304648
:103420003160C6E901B4C6E903477461B461F4616F
:1034300034627462FDF720FF08B1FDF798FC0022AA
:103440002E6752201146B563FEF730F95220BBE7D4
:103450006D4A934235D10A6842F000420A60096819
:1034600001F000410591016841F010010160006820
:103470006946CDE9006800F01000CDE90246CDE9CB
:1034800004906046FDF7BAFF594E5A49C036603184
:1034900030463160C6E901B4C6E903477461B461DE
:1034A000F46134627462FDF7E7FE08B1FDF75FFC7A
:1034B0002E6700220221B5635320FEF7F7F8532050
:1034C00082E7DFF848C10722634531D14549091D2C
:1034D0000B6843F010030B60096801F010010591BF
:1034E000016841F00101016000686946029400F042
:1034F000010005904FF4C060CDE900084448CDE9D3
:103500000362FDF77BFF434E434930463160C6E915
:1035100001A4C6E903477461B461F4613462746262
:10352000FDF7AAFE08B1FDF722FC2E67B5634DE753
:10353000DFF8E8C0634536D10B6843F400330B6015
:10354000096801F400310591016841F0080101604A
:1035500000686946029400F0080005906020CDE9FB
:1035600000082648CDE90362FDF748FF294E2149AE
:103570006036483130463160C6E901A4C6E90347E8
:103580007461B461F46134627462FDF775FE08B170
:10359000FDF7EDFB2E6700220121B5632620FEF723
:1035A00085F8262010E71E4DAB42C0D10B6843F4CE
:1035B00080230B60096801F480210591016841F0C6
:1035C0000801016000686946029400F00800059057
:1035D0004FF44070CDE900080848CDE90362FDF7DB
:1035E0000DFFF3E64038024000080240004C004066
:1035F000440700204060024000500040000C0240A0
:103600000078004000100240007C004000100140A3
:103610000000024064080020406402400044004072
:1036200000480040704770472DE9F8430446806F1A
:103630001F4616460D46202850D1CDB1C6B194F88C
:10364000740001284AD0012084F8740021224FF030
:103650000008C4F88080A267FDF7C2FF8146A06819
:10366000A4F85060A4F85260B0F5805F03D004E085
:103670000120BDE8F883206928B12E465FF00005DF
:1036800084F8748010E00026FAE78021204601F0DB
:103690003DFDB8B9C6B116F8010B21688862B4F8CF
:1036A0005200401EA4F85200B4F852004B464FF0AE
:1036B000000200970028E8D14FF04001204601F0B9
:1036C00025FD38B10320D4E735F8020B2168C0F39B
:1036D0000800E3E72020A0670020CAE70220C8E72F
:1036E0007047FEE71D4808B5016841F4001101600C
:1036F000016801F400110091016841F4800101604A
:1037000000680022114600F4800000900D20FDF7B3
:10371000CDFF0D20FDF7BCFF00220E201146FDF766
:10372000C5FF0E20FDF7B4FF002210201146FDF763
:10373000BDFF1020FDF7ACFF002211201146FDF760
:10374000B5FF1120FDF7A4FF00223A201146FDF736
:10375000ADFFBDE808403A20FDF79ABF303802407F
:103760002DE9F04186B014216846FCF783FD3E4800
:10377000016841F080010160016801F0800105915C
:10378000016841F001010160016801F0010105914A
:10379000016841F004010160016801F00401059134
:1037A000016841F002010160016801F00201059128
:1037B000016841F010010160016801F010010591FC
:1037C000016841F00801016000680024DFF89C8076
:1037D000694600F00800059048F28A000294CDE99D
:1037E00000044046FDF70AFE214E3020CDE90004DA
:1037F000694630460294FDF701FE4FF232006946F9
:10380000CDE900041B480294FDF7F8FD4FF4A050E9
:103810006946CDE9000418480294FDF7EFFD174F03
:1038200040F21240CDE90004694638460294FDF7A3
:10383000E5FD022569464FF440408DE831003846E9
:10384000FDF7DCFD4FF4407069468DE831003046ED
:10385000FDF7D4FDE80169468DE831004046FDF7EB
:10386000CDFD06B0BDE8F0813038024000000240D6
:10387000000802400004024000100240000C024018
:1038800010B59AB000241C21009407A8019402945A
:103890000394049405940694FCF7ECFC2C210EA8E8
:1038A000FCF7E8FC3648D722344942F20F7380E82F
:1038B0001600C0E9033444618461FEF73FFD08B19E
:1038C000FDF755FA4FF4805000902D486946FEF7F9
:1038D000EBFD08B1FDF74BFA2948FFF769FA08B18B
:1038E000FDF745FA264804A9049405940694FEF7CA
:1038F000D3FC08B1FDF73BFA6020CDE9070420486E
:10390000002207A909940A940B940C940D94FFF7D4
:10391000C0F908B1FDF72BFA1948042207A9FFF7EF
:10392000B8F908B1FDF723FA1548082207A9FFF7EF
:10393000B0F908B1FDF71BFA11480C2207A9FFF7EF
:10394000A8F908B1FDF713FA4FF400500E940F9444
:1039500001031094CDE9124011941494CDE915415E
:1039600007480EA917941894FEF746FC08B1FDF716
:10397000FEF90348FFF722F91AB010BD000001401C
:10398000E001002010B58EB000241C21009407A88F
:10399000019402940394049405940694FCF76AFC41
:1039A000294842F20F716B224FF08043C0E9024177
:1039B00004618461C0E90032FEF7C0FC08B1FDF784
:1039C000D6F94FF4805000901F486946FEF76CFD11
:1039D00008B1FDF7CCF91C48FFF7EAF908B1FDF78B
:1039E000C6F9194804A904940694FEF755FC08B1D9
:1039F000FDF7BDF96020CDE907041348002207A9AF
:103A000009940B94FFF745F908B1FDF7B0F90E489A
:103A1000042207A9FFF73DF908B1FDF7A8F90A4804
:103A2000082207A9FFF735F908B1FDF7A0F9064804
:103A30000C2207A9FFF72DF908B1FDF798F9024804
:103A4000FFF7BCF80EB010BD2C02002030B587B0D7
:103A50001E4C00251E486B214FF6FF7200958023F7
:103A600001950295039504950595069584E8230034
:103A7000A3612046C4E90325FEF799FE08B1FDF7CE
:103A800076F91248694600950295FEF705FC08B1E3
:103A9000FDF76DF90120002203A9CDE903500B4881
:103AA00005950695FEF7FCFD08B1FDF760F907489E
:103AB000082203A9FEF7F4FD08B1FDF758F92068C4
:103AC000C16841F00101C16007B030BD780200203B
:103AD0000004004030B58FB000241C21009407A8DA
:103AE000019402940394049405940694FCF7C2FB99
:103AF0001E4842F20F726B231B4D8021C0E9024227
:103B000004618161C0E90053FEF718FC08B1FDF7BC
:103B10002EF94FF48050009014486946FEF7C4FC1B
:103B200008B1FDF724F91148FFF742F908B1FDF794
:103B30001EF90E4804A904940694FEF7ADFB08B1E3
:103B4000FDF715F96020CDE9070408480C2207A904
:103B500009940B94FFF79DF808B1FDF708F90348A5
:103B6000FFF72CF80FB030BD00080040C402002061
:103B700030B587B01E4C00251E486B214FF6FF72F2
:103B8000009580230195029503950495059506956A
:103B900084E82300A3612046C4E90325FEF707FE5D
:103BA00008B1FDF7E4F81248694600950295FEF762
:103BB00073FB08B1FDF7DBF80120002203A9CDE972
:103BC00003500B4805950695FEF76AFD08B1FDF711
:103BD000CEF80748082203A9FEF762FD08B1FDF7F9
:103BE000C6F82068C16841F00101C16007B030BD6E
:103BF00010030020000C00403EB51048002442F2A3
:103C00000F720D4D6B230094019480210294816109
:103C1000C0E90242C0E90053FEF790FB08B1FDF78E
:103C2000A6F80648694600940294FEF735FB002882
:103C300001D0FDF79CF83EBD001000405C03002061
:103C40000D48002110B50B4C0C224FF416530460A4
:103C5000C0E90131C160C0E904128161C161016242
:103C60004162FFF7F9FA002803D0BDE81040FDF7E4
:103C70007EB810BD004C0040A80300200D48002174
:103C800010B50B4C0C224FF4E1330460C0E9013154
:103C9000C160C0E904128161C16101624162FFF744
:103CA000DBFA002803D0BDE81040FDF760B810BD76
:103CB000005000402C0400200D48002110B50B4C92
:103CC0000C224FF4E1330460C0E90131C160C0E966
:103CD00004128161C16101624162FFF7BDFA0028EF
:103CE00003D0BDE81040FDF742B810BD0078004099
:103CF000B00400200D48002110B50B4C0C224FF4ED
:103D000016530460C0E90131C160C0E90412816149
:103D1000C16101624162FFF79FFA002803D0BDE84C
:103D20001040FDF724B810BD007C00403405002091
:103D30000D48002110B50B4C0C224FF416530460B3
:103D4000C0E90131C160C0E904128161C161016251
:103D50004162FFF781FA002803D0BDE81040FDF76B
:103D600006B810BD00100140B805002010B5104C79
:103D7000002010490C234FF4E1322160C4E90120F6
:103D8000E060C4E90403A061E06120626062204653
:103D9000FFF762FA08B1FCF7EAFF2068016841F01A
:103DA000200101602068016841F01001016010BD30
:103DB0003C060020004400400D48002110B50B4C8B
:103DC0000C224FF4E1330460C0E90131C160C0E965
:103DD00004128161C16101624162FFF73DFA00286E
:103DE00003D0BDE81040FCF7C2BF10BD0048004042
:103DF000C0060020FEE7FEE7704700000EB506A2F1
:103E00004FF4FA7307CA8DE8070006480C2269468A
:103E1000FFF70AFC0EBD0000243031303230322D65
:103E200044393536A80300207047D0E9001340F22A
:103E30007E42028153B1042B0BD0082B0CD00C2BEB
:103E40000DD00868102B0DD0C2657047086842631A
:103E500070470868826370470868C26370470868E3
:103E60000264704782657047D0E9001340F23A72ED
:103E7000028153B1042B0BD0082B0CD00C2B0DD08E
:103E80000868102B0DD0C265704708684263704700
:103E90000868826370470868C263704708680264F4
:103EA000704782657047D0E9001340F2DC5202810E
:103EB00053B1042B0BD0082B0CD00C2B0DD0086861
:103EC000102B0DD0C26570470868426370470868C0
:103ED000826370470868C26370470868026470476D
:103EE00082657047044A0C2102600023038141600F
:103EF0001046FEF791BF0000C4020020FDF776BB1C
:103F000030B5B3B0302121A8FCF7B4F914212DA8A5
:103F1000FCF7B0F984216846FCF7ACF92748016842
:103F200041F080510160006800F0805032902448D8
:103F3000016841F44041016000680225042300F457
:103F4000404032900120D82482050104CDE9275257
:103F500029AA82E838002C95CDE9210121A8FDF796
:103F600073FF08B172B6FEE7FDF7D2FB08B172B677
:103F7000FEE74FF480524FF4A05100242F94CDE976
:103F800030120F20CDE92D0507212DA8FDF774FE75
:103F900008B172B6FEE74FF45F5012941394149474
:103FA000119415941794189400906846FDF7E6FB59
:103FB000002801D072B6FEE733B030BD4038024071
:103FC000007000400248016841F4700101607047D0
:103FD00088ED00E02DE9F041674D0127674C002690
:103FE000AA79D4E904012AB3FEF7A8FFE8644CF2E9
:103FF0005031E38B002B63D0012B4FF6FF7267D05B
:10400000C3EB034CAB6C95F907E0D21A6244104441
:10401000A0F57F40FF38B1FBF0F000FB0EF06865C3
:10402000D5E9140281182965286E401C28660428E9
:1040300059D078E0E683FEF781FFA864AF71A18BC9
:10404000A069FDF7C7FAC0B1EF716069C0B104287B
:104050001CD0082820690068016A1DD021F4204185
:1040600001626069D8B104281FD00828206900685F
:10407000016A22D041F400511CE0FF20E871E4E71E
:1040800020690068016A21F00A01E9E720690068F7
:10409000016A21F0A001E3E721F42061E0E7206953
:1040A0000068016A41F0020104E020690068016AC9
:1040B00041F020010162BDE8F08141F40071F9E7AF
:1040C000AB6C95F90720C01AB1FBF0F05043A6E79E
:1040D000D5F848C095F90730A2EB0C021044B1FBAB
:1040E000F0F058439BE72E66A86DE8652B7A63B322
:1040F000891A0144CA1701EB92718910A965084415
:10410000FCF74BFA9FED1E1B00EE100A53EC112B2F
:1041100010EE100A21F00041FCF7A8FA01D8A86DB2
:1041200020622E662E656069B8B104281BD008286D
:1041300020690068016A1CD021F4204101622069D5
:104140000068016A0162AE71B5E70144CA1701EB6C
:1041500092718910A9652F72D1E720690068016A00
:1041600021F00A01EAE720690068016A21F0A00154
:10417000E4E721F42061E1E7000000206C09002061
:1041800000000000000014402DE9F041674D0127B8
:10419000674C00266A7AD4E904012AB3FEF7CEFE02
:1041A000A8664CF25031E38B002B63D0012B4FF605
:1041B000FF7267D0C3EB034C6B6E95F90AE0D21A1D
:1041C00062441044A0F57F40FF38B1FBF0F000FBE3
:1041D0000EF02867D5E91B028118E966E86F401CDC
:1041E000E867042859D078E0E683FEF7A7FE686602
:1041F0006F72A18BA069FDF7EDF9C0B1AF72606974
:10420000C0B104281CD0082820690068016A1DD0AC
:1042100021F4204101626069D8B104281FD0082828
:1042200020690068016A22D041F400511CE0FF209F
:10423000A872E4E720690068016A21F00A01E9E751
:1042400020690068016A21F0A001E3E721F4206100
:10425000E0E720690068016A41F0020104E020699A
:104260000068016A41F020010162BDE8F08141F47B
:104270000071F9E76B6E95F90A20C01AB1FBF0F0F6
:104280005043A6E7D5F864C095F90A30A2EB0C02BA
:104290001044B1FBF0F058439BE7EE67686FA867E6
:1042A000EB7A63B3891A0144CA1701EB9271891042
:1042B00069670844FCF771F99FED1E1B00EE100AB8
:1042C00053EC112B10EE100A21F00041FCF7CEF94F
:1042D00001D8686F2062EE67EE666069B8B10428A5
:1042E0001BD0082820690068016A1CD021F42041F5
:1042F000016220690068016A01626E72B5E70144DB
:10430000CA1701EB927189106967EF72D1E72069D2
:104310000068016A21F00A01EAE720690068016A81
:1043200021F0A001E4E721F42061E1E70000002092
:104330009009002000000000000014400148FEF732
:104340007BBB0000780200200A4800214FF6FF7373
:10435000C28B9A4202D2521CC28301E0C183016225
:104360000548C28B9A4202D2521CC2837047C18355
:10437000016270476C090020900900202DE9F0418E
:10438000674D0127674C00262A78D4E904012AB337
:10439000FEF7D4FD68614CF25031E38B002B63D003
:1043A000012B4FF6FF7267D0C3EB034C2B6995F9D5
:1043B00001E0D21A62441044A0F57F40FF38B1FBFF
:1043C000F0F000FB0EF0E861D5E906028118A96162
:1043D000A86A401CA862042859D078E0E683FEF75A
:1043E000ADFD28612F70A18BA069FDF7F3F8C0B176
:1043F0006F706069C0B104281CD00828206900686B
:10440000016A1DD021F4204101626069D8B10428FD
:104410001FD0082820690068016A22D041F40051A9
:104420001CE0FF206870E4E720690068016A21F061
:104430000A01E9E720690068016A21F0A001E3E7C9
:1044400021F42061E0E720690068016A41F002017F
:1044500004E020690068016A41F020010162BDE8C2
:10446000F08141F40071F9E72B6995F90120C01A38
:10447000B1FBF0F05043A6E7D5F810C095F9013034
:10448000A2EB0C021044B1FBF0F058439BE7AE6284
:10449000286A6862AB7863B3891A0144CA1701EBD2
:1044A0009271891029620844FCF777F89FED1E1B72
:1044B00000EE100A53EC112B10EE100A21F000410F
:1044C000FCF7D4F801D8286A2062AE62AE61606958
:1044D000B8B104281BD0082820690068016A1CD0E4
:1044E00021F42041016220690068016A01622E7096
:1044F000B5E70144CA1701EB927189102962AF70C8
:10450000D1E720690068016A21F00A01EAE7206921
:104510000068016A21F0A001E4E721F42061E1E7ED
:1045200000000020240900200000000000001440CA
:104530002DE9F041674D0127674C0026EA78D4E960
:1045400004012AB3FEF7FAFC28634CF25031E38BE6
:10455000002B63D0012B4FF6FF7267D0C3EB034CE7
:10456000EB6A95F904E0D21A62441044A0F57F404A
:10457000FF38B1FBF0F000FB0EF0A863D5E90D02A7
:1045800081186963686C401C6864042859D078E01D
:10459000E683FEF7D3FCE862EF70A18BA069FDF71C
:1045A00019F8C0B12F716069C0B104281CD0082867
:1045B00020690068016A1DD021F420410162606910
:1045C000D8B104281FD0082820690068016A22D0C9
:1045D00041F400511CE0FF202871E4E720690068E5
:1045E000016A21F00A01E9E720690068016A21F007
:1045F000A001E3E721F42061E0E720690068016A97
:1046000041F0020104E020690068016A41F02001E4
:104610000162BDE8F08141F40071F9E7EB6A95F9B8
:104620000420C01AB1FBF0F05043A6E7D5F82CC027
:1046300095F90430A2EB0C021044B1FBF0F05843A2
:104640009BE76E64E86B28646B7963B3891A014455
:10465000CA1701EB92718910E9630844FBF79DFFCB
:104660009FED1E1B00EE100A53EC112B10EE100AEA
:1046700021F00041FBF7FAFF01D8E86B20626E647D
:104680006E636069B8B104281BD0082820690068EF
:10469000016A1CD021F42041016220690068016A8E
:1046A0000162EE70B5E70144CA1701EB92718910FF
:1046B000E9636F71D1E720690068016A21F00A019E
:1046C000EAE720690068016A21F0A001E4E721F42B
:1046D0002061E1E700000020480900200000000000
:1046E000000014400148FEF7A7B9000010030020A5
:1046F0000A4800214FF6FF73C28B9A4202D2521C25
:10470000C28301E0C18301620548C28B9A4202D292
:10471000521CC2837047C183016270472409002084
:104720004809002070B5194D28680069C043C007CA
:104730002BD1174CA068401CA06020880A30208034
:1047400001F0A8FA606808B1401E60601048218836
:104750000C30B1F57A7F12D3002121808288521C5F
:1047600092B282803C2A0AD381804288521C92B243
:1047700042803C2A03D341800188491C0180228861
:104780006FF00101C2802868016170BD5C030020E8
:1047900084000020F0B5274B4FF0804E264D026874
:1047A0009842264E264F274C09D0704507D0A84284
:1047B00005D0B04203D0B84201D0A04205D1D1F813
:1047C00004C022F070024CEA020298421BD07045ED
:1047D00019D0A84217D0B04215D0B84213D0A04289
:1047E00011D0194DA8420ED0184DA8420BD0184D2B
:1047F000A84208D0174DA84205D0174DA84202D0B4
:10480000164DA84203D1CD6822F440722A434D6967
:1048100022F080022A43026098428A68C2620A68D3
:10482000826201D0A04201D1096901630121416185
:10483000F0BD0000000001400004004000080040FE
:10484000000C0040000401400040014000440140D1
:104850000048014000180040001C004000200040BB
:1048600010B5046A012301F01F018B409C430462D0
:104870008A40016A1143016210BD42EA0322836843
:104880000A4323F47F410A4382607047826822F022
:1048900070020A4342F0070181607047F0B5026A76
:1048A000DFF860C0184F22F00102DFF860E002621A
:1048B000066A4268836926F002060D68B8428C6871
:1048C00003EA0C0323F0030344EA060445EA030564
:1048D00001D0704505D1CB6824F00804234323F0B0
:1048E0000404B84201D0704505D122F44076D1E9E4
:1048F000053233431A43426085614968416304626B
:10490000F0BD00008FFFFEFF0000014000040140E9
:10491000F0B5026A194E1A4C22F01002DFF864E07A
:104920000262056A4368826925F02005D1F808C053
:10493000A0420F6802EA060222F4407245EA0C1512
:1049400042EA072201D0704506D1CE6825F08005E5
:1049500045EA061525F04005A04201D0704507D173
:10496000D1E9054623F4406343EA840343EA86031E
:1049700043608261496881630562F0BDFF8FFFFE7D
:104980000000014000040140F0B5026A194F1A4EC0
:1049900022F48072DFF864E00262056A4368C2694B
:1049A00025F40075D1F808C0B0420C6802EA07028D
:1049B00022F0030245EA0C2544EA020401D07045C6
:1049C00006D1CF6825F4006242EA072222F480650E
:1049D000B04201D0704507D123F44052D1E90536E9
:1049E00042EA031242EA06134360C4614968C163A4
:1049F0000562F0BD8FFFFEFF000001400004014092
:104A0000F0B5026A124B114F22F4805298420262B2
:104A1000046A4268C36924F400548E680D6803EA8E
:104A2000070323F4407344EA063443EA052302D023
:104A3000084DA84204D14D6922F4804242EA851211
:104A40004260C361496801640462F0BDFF8FFFFEEC
:104A50000000014000040140F0B5026ADFF844C0E4
:104A600022F480320262056A4268446D25F4003502
:104A70000E8960450C4F0B6804EA070445EA0645B9
:104A800043EA040302D0094CA04204D14C6922F449
:104A9000803242EA042242604365496881650562CA
:104AA000F0BD0000000001408FFFFEFF0004014048
:104AB000F0B5026ADFF844C022F480120262046A90
:104AC0004268436D24F400140E8960450C4F0D6854
:104AD00003EA070344EA065443EA052302D0094DDA
:104AE000A84204D14D6922F4802242EA8522426024
:104AF00043654968C1650462F0BD000000000140E3
:104B0000FF8FFFFE0004014010B5036A046A23F022
:104B10000A0324F00104046284690B4324F0F001C9
:104B200041EA02118161036210BD000070B5046AA0
:104B3000174D24F001040462A8428469056A14D068
:104B4000B0F1804F11D0134EB0420ED0124EB04291
:104B50000BD0124EB04208D0114EB04205D0114ECB
:104B6000B04202D0104EB04203D124F003041443EB
:104B700001E044F001041A0724F0F00325F00A04D0
:104B800001F00A01214343EA12628261016270BDB1
:104B9000000001400004004000080040000C0040FC
:104BA00000040140004001400018004010B5036AB5
:104BB00023F0100303628369046A23F4704324F032
:104BC000A00443EA0232826144EA0111016210BD8D
:104BD00070B5056AA0244FF6FF7606EA033325F088
:104BE0001005056204EA01118469056A24F4407421
:104BF00025F0A00544EA0222294322F4704213431F
:104C00008361016270BD00000148FEF715BA000023
:104C1000A80300200148FEF70FBA00002C04002072
:104C20000148FEF709BA0000B00400200148FEF771
:104C300003BA00003405002090F82410C90706D0FC
:104C40000168836A4A6822F400321A434A6090F885
:104C50002410890706D50168C36A4A6822F48032A5
:104C60001A434A6090F82410490706D50168036B7F
:104C70004A6822F480221A434A6090F824100907F7
:104C800006D50168436B4A6822F400421A434A6021
:104C900090F82410C90606D50168836B8A6822F44F
:104CA00080521A438A6090F82410890606D501685C
:104CB000C36B8A6822F400521A438A6090F8241069
:104CC000490611D50168036C4A6822F480121A4320
:104CD0004A60016CB1F5801F06D10168436C4A68D7
:104CE00022F4C0021A434A6090F82410090606D53F
:104CF0000168826C486820F40020104348607047C7
:104D000038B500250446C0F88050FCF769FC03461E
:104D10002068006800070BD56FF07E4000900022ED
:104D200020464FF4001100F0F1F908B1032038BD1E
:104D30002020A067E0672566002084F8745038BD05
:104D400010B5806B0021A0F85A10A0F85210FEF7A1
:104D500071F910BD70B5846B00252168A06FE66FF6
:104D60008968090606D5212804D1A4F852502046A6
:104D700000F068F820688068400606D5222E04D12D
:104D8000A4F85A50204600F045F8D4F8800040F0CE
:104D90001000C4F880002046FEF74CF970BD10B535
:104DA000C169806BB1F5807F1BD00021A0F85A103B
:104DB000202201680B6823F480730B6001688B6804
:104DC00023F001038B6001688B6823F040038B6044
:104DD000C267016E012904D101680A6822F010023D
:104DE0000A60016E012902D0FEF71CFC10BDB0F86C
:104DF0005810FEF7DFF810BD10B5806B016E012969
:104E000002D0FEF710FC10BDB0F858104908FEF7AC
:104E1000D1F810BD01680A6822F490720A60016836
:104E20008A6822F001028A60016E012904D10168BA
:104E30000A6822F010020A6000212022C26701667F
:104E400041667047016820220B6823F0C0030B60A5
:104E5000826770472DE9F04104460368C2698168A2
:104E6000D4E90450DFF8F4C17D4E29431F680025C2
:104E700010437C4A014307EA0C070F431F604FF4BD
:104E800000402168E7684B6823F440533B434B6084
:104E90002768A369216AD7F808C019432CF4306346
:104EA0000B43BB602168B1420AD1116811F00301C4
:104EB00052D001297CD0022971D003296ED184E01F
:104EC000694B99420AD1116811F00C0167D004298D
:104ED00065D0082975D00C2960D176E0634B9942E2
:104EE0000AD1116811F0300159D010296BD0202956
:104EF00067D0302952D168E05D4B99420AD11168E0
:104F000011F0C0014BD040295DD0802959D0C02973
:104F100044D15AE0574B99420DD1116811F44071B8
:104F20003DD0B1F5807F4ED0B1F5007F49D0B1F5CD
:104F3000407F33D149E0504B99420FD1116811F4B1
:104F4000406109D0B1F5806F3DD0B1F5006F38D028
:104F5000B1F5406F22D138E0012120E0474B994262
:104F60000DD1116811F4405119D0B1F5805F2AD0EC
:104F7000B1F5005F25D0B1F5405F0FD125E0404B82
:104F800099420BD1116811F4404108D0B1F5804F1E
:104F900019D0814215D0B1F5404F16D01021E369E8
:104FA000384A4FF6EF7683422FD109294BD201E0E0
:104FB00009E006E0DFE801F00B0E11471347474711
:104FC00016000221EBE70421E9E70821E7E7FCF7F7
:104FD000EBFE06E0FCF7F8FE03E0104602E0FCF70B
:104FE00003FF88B36168400000EB5100B0FBF1F0B3
:104FF00080B2A0F11001B14225D84FF6F0732168BC
:10500000C0F342021840104320E009291BD2DFE818
:1050100001F005080B1A0D1A1A1A1000FCF7C4FE4D
:1050200006E0FCF7D1FE03E0104602E0FCF7DCFEF0
:1050300050B1616800EB5100B0FBF1F080B2A0F11B
:105040001001B14201D9012501E02168C8600020AA
:105050006066A0662846BDE8F0810000F369FFEFB6
:1050600000100140903802400044004000480040D9
:10507000004C004000500040001401400078004007
:10508000007C00400024F40070B50446006F002549
:1050900022236165A4F85820C4F88050E367D8B192
:1050A00017491346C163216F16480864216F1648DB
:1050B000C864206F0565666D2168206F3246243113
:1050C000FCF74CF940B11021C4F88010202084F87E
:1050D0007450A067012070BD84F874502068016886
:1050E00041F4807101602068816841F001018160B4
:1050F0002068816841F040018160002070BD00009F
:105100009F4D0008F94D0008554D00082DE9F04766
:105110009A4617460E460446089D4FF000094FF088
:10512000200839E0681C37D0FCF75AFAA0EB0A00D7
:10513000A84222D80DB32068016849072CD5C06960
:10514000C043000528D423684FF400611962216828
:105150000B6823F4D0730B6021688B6823F0010384
:105160008B60C4F87880C4F87C80C4F8808000BF6D
:10517000032084F87490BDE8F08721680B6823F45D
:10518000D0730B6021688B6823F001038B60C4F837
:105190007880C4F87C80EBE72068C06936EA0000BC
:1051A00004D00020B842BDD00020E4E70120F9E798
:1051B0000148FDF741BF00003C060020FEE703B4B4
:1051C00001984100009850EAC12018BF04204A0D00
:1051D00018BF40F0010040F2FF72B2EB515F08BF10
:1051E00040F00200012808BF052002B070470907FF
:1051F00000284FEA116104DB00F1E02080F8001480
:10520000704700F00F0000F1E02080F8141D704797
:1052100010B52F499FED2C1B2DED020B84B0059886
:1052200020F000408842D8BF9DED040B2DDD2949B8
:10523000884209D1049840B94FF0010000F0D4FC35
:1052400000F0A2FC06B010BD05DB9DED040B00F0E4
:105250008FFC06B010BD68469DED040B00F0A0F871
:1052600010F0030004BF9DED021B9DED000B0CD060
:1052700001280ED09DED021B9DED000B022817D0DA
:10528000012000F0DDFB06B010BD00F0A5FA06B06D
:1052900010BD9DED021B9DED000B012000F0D0FB29
:1052A00051EC100B81F0004106B041EC100B10BD29
:1052B00000F092FA51EC100B81F0004106B041EC85
:1052C000100B10BD000000000000000000000000F6
:1052D000FB21E93F0000F07F10B52F499FED2C1B0B
:1052E0002DED020B84B0059820F000408842DCBF11
:1052F00000209DED040B32DD2849884209D1049835
:1053000040B94FF0010000F06FFC00F03DFC06B02A
:1053100010BD05DB9DED040B00F02AFC06B010BDAE
:1053200068469DED040B00F03BF810F0030011D02F
:10533000012818D09DED021B9DED000B02281AD00C
:1053400000F04AFA51EC100B81F0004106B041EC3C
:10535000100B10BD9DED021B9DED000B012000F018
:105360006FFB06B010BD9DED021B9DED000B00F024
:1053700033FA06B010BD012000F062FB51EC100BB7
:1053800081F0004106B041EC100B10BD00000000A0
:105390000000000000000000FB21E93F0000F07F5A
:1053A0002DE9F14F04462DED020B2DED088B8AB04F
:1053B0009FEDE70B80ED020B139EE74826F00045BA
:1053C00085420ADC9DED120B002084ED000B0AB033
:1053D000BDEC088B03B0BDE8F08FE0489FEDE0AB7B
:1053E0009FEDE1BBA84247DDE14F9FEDE39B9FEDC1
:1053F000E48B9DED120B53EC1A2B51EC100B002E8D
:105400001CDDFAF7E3FF41EC100BBD4208D053EC72
:105410001B2B51EC100BFAF7D9FFC4E900010BE08C
:1054200053EC192B51EC100BFAF7D0FF53EC182B5F
:10543000FAF7CCFFC4E900010120C8E7FAF725FF1D
:1054400041EC100BBD4208D053EC1B2B51EC100B60
:10545000FAF71BFFC4E900010BE053EC192B51ECE8
:10546000100BFAF712FF53EC182BFAF70EFFC4E9F2
:1054700000014FF0FF30AAE7C348A84279DB9DED59
:10548000120B51EC100B00F03DFE41EC180B9FEDA0
:10549000C00B53EC102BFAF79FFF9FEDBF1B53EC93
:1054A000112BFAF7F2FEFBF796F80746FBF775F8B3
:1054B00041EC190B53EC1A2BFAF78EFF53EC182B17
:1054C000FAF787FF41EC180B53EC1B2B51EC190B2F
:1054D000FAF782FFDFF8C8A241EC100B4FEA15582B
:1054E0000125FA4453EC102B51EC180BFAF76EFF20
:1054F000032DC4E900013DD0C1F30A5005EB45116D
:10550000A8EB00001139814234DA0AEB051BB0EE3A
:1055100048AA9BED000BF0EE68AA53EC102B51EC5F
:10552000190BFAF759FF41EC1B0B51EC1A0B53EC1A
:105530001B2BFAF74BFF41EC180B51EC1A0B53ECF9
:10554000182BFAF743FF53EC1B2BFAF73FFF9BEDA9
:10555000020B41EC1A0B53EC102B51EC190BFAF720
:105560003BFF53EC1A2BFAF731FF41EC100B6D1C8B
:10557000B8E70EE0002EA8BF3846BFF628AF94ED7E
:10558000000B51EC100B81F00041C4E9000178429E
:105590001DE7C6F3130040F4801EC6F30A50A0F2C4
:1055A000F530471100F01F05C5F12000DDF848B0C7
:1055B00008900020069007900520EC467949002DC0
:1055C00007EB0002794408BF51F8221009D051F8C6
:1055D000223001EB8201AB404A68089922FA01F1BE
:1055E0001943A1FB0E26A1FB0B131A449A4234BFA8
:1055F0000123002303EB06080CEB8003D3E901A68B
:105600000E448E4234BF0121002192448A4411B1DC
:10561000924502D903E0924501D2012100E0002128
:10562000C3E901A641444CF82010011EA0F101007D
:10563000C4DC029800F10050850F0298DDE9036791
:105640008000DDF81480FAF7A8FF41EC1A0B304611
:10565000FAF7B4FF9FED541B53EC112BFAF7BCFE85
:1056600041EC1B0B3846FAF7A9FF9FED511B53EC99
:10567000112BFAF7B1FE41EC180B4046FAF79EFFEA
:105680009FED4D1B53EC112BFAF7A6FE41EC190BC5
:1056900051EC180B53EC192BFAF7F7FD53EC1B2BBD
:1056A000FAF7F3FD53EC1A2BFAF7EFFDCDE90801F9
:1056B000002008909DED080B53EC1A2B51EC100BB9
:1056C000FAF784FE53EC1B2BFAF780FE53EC182BF1
:1056D000FAF77CFE53EC192BFAF77BFE9FED381B93
:1056E00053EC112BFAF778FE9FED370B41EC180BBA
:1056F00053EC102B9DED080B51EC100BFAF76CFEE0
:1057000053EC182BFAF7C1FD9FED310B41EC180B50
:1057100053EC102B9DED080B51EC100BFAF75CFECF
:1057200053EC182BFAF7B1FD41EC100B139810F065
:10573000004F06D06D4251EC100B81F0004141EC5E
:10574000100B284684ED000B41E60000000000002D
:105750000000000000000000FB21E93F7CD902406E
:1057600000004054FB21F93F3163621A61B4D03D1F
:10577000FB21F93F000000000000601A61B4D03D39
:105780007370032E8A19A33BFB21394100000000EE
:1057900083C8C96D305FE43F000000000000E03FB7
:1057A00082300000D02F0000000000000000103EFA
:1057B000000000000000103C000000000000103A53
:1057C000182D4454FB21F93D3326A611460B113CFC
:1057D00000000054FB21F93D10B52DED040B2DED1B
:1057E000088B82B0B0EE419AF0EE619A0B9820F0EF
:1057F00000449FED4BABB4F1795F11DA9DED0A0BDC
:1058000051EC100BFAF7E7FE002801BFB0EE4A0A90
:10581000F0EE6A0A02B0BDEC088B04BF04B010BD04
:105820009DED0A0B53EC102B51EC100BFAF7D4FD45
:1058300041EC180B3C480621B0EE480AF0EE680A2D
:10584000784400F081F853EC182B51EC100BFAF768
:10585000C3FD9DED0A0B41EC1B0B53EC192B51ECD6
:10586000100BFAF7B9FD41EC190B53EC1B2B51EC63
:10587000180BFAF7B1FD53EC192BFAF7A7FD9FEDC2
:105880002C0B41EC190B53EC102B51EC180BFAF7C5
:10589000A3FD41EC100B2848844210DA53EC192B7D
:1058A00051EC100BFAF792FD53EC1A2BFAF791FD1D
:1058B00041EC100B02B0BDEC088B04B010BD1F48CA
:1058C000A042BCBF9FED1E1B8DED001B06DBA4F5A7
:1058D00000100190002000909DED001B51EC100B7A
:1058E00053EC112BFAF772FD9DED000B41EC180BF8
:1058F00053EC102B51EC1A0BFAF768FD41EC1A0B24
:1059000053EC192B51EC180BFAF760FD53EC1A2BE2
:10591000FAF75FFD41EC100BCCE70000000000003F
:10592000000000000000F03FF42C00000000000028
:10593000000000000000E03F3333D33F0000E93FA8
:10594000000000000000D23F70B504462DED028B30
:105950004D1E00EBC500B0EE408AF0EE608A90ED7F
:10596000000B35F0060017D053EC182B51EC100B40
:10597000FAF732FD41EC100B6D1E04EBC50090ED03
:10598000001B51EC100B53EC112BFAF77EFC41EC91
:10599000100B35F00600E7D1022D36D0042D1CD0B7
:1059A000062D1CBFBDEC028B70BD53EC182B51ECC7
:1059B000100BFAF711FD94ED0A1B53EC112BFAF7BB
:1059C00064FC53EC182BFAF707FD94ED081B53EC1D
:1059D000112BFAF75AFC41EC100B53EC182B51EC3D
:1059E000100BFAF7F9FC94ED061B53EC112BFAF7A8
:1059F0004CFC53EC182BFAF7EFFC94ED040B53EC32
:105A0000102BFAF742FC41EC100B53EC182B51EC25
:105A1000100BFAF7E1FC94ED021B53EC112BFAF793
:105A200034FC53EC182BFAF7D7FC94ED001B53EC25
:105A3000112BFAF72AFCBDEC028B41EC100B70BD68
:105A400031B504462DED040B2DED0A8BB0EE41BAB5
:105A5000F0EE61BA0B989DED0A0B20F00040B0F11A
:105A6000795F0DDA51EC100BFFF7A9FB042808BF92
:105A700000F09AF89DED0A0BBDEC0A8B05B030BD25
:105A800053EC102B51EC100BFAF7A6FC41EC180B61
:105A90009DED0A0B53EC182B51EC100BFAF79CFC04
:105AA00041EC190B2C48B0EE480AF0EE680A0521CB
:105AB0007844FFF749FF9FED2ACBB0EE40AAF0EE05
:105AC00060AA9CB353EC1C2B51EC190BFAF784FC25
:105AD00041EC1C0B53EC1A2B51EC190BFAF77CFC24
